S00D0000726F7567682E73726563F2
S11300000C942A000C943F000C943F000C943F0085
S11300100C943F000C943F000C943F000C943F0060
S11300200C943F000C943F000C943F000C943F0050
S11300300C943F000C943F000C943F000C943F0040
S11300400C943F000C943F000C943F000C943F0030
S11300500C943F0011241FBECFE5D8E0DEBFCDBF16
S113006010E0A0E6B0E0E2EEF0E002C005900D92F0
S1130070A236B107D9F70E9441000C946F000C948A
S1130080000083E087BB01C018BAB79BFDCF87EAA5
S113009091E60197F1F700C00000B69904C00DC0C5
S11300A08091600088BBB79BFBCF87EA91E60197FC
S11300B0F1F700C0000018BAE8CFB59BE6CF17BA35
S11300C0B79BFECF86B383708093600083E087BBC9
S11300D087EA91E60197F1F700C00000D6CFF894C3
S10500E0FFCF4C
S10500E2030015
S9030000FC
