:100000000C942A000C9447000C9447000C94470071
:100010000C9447000C9447000C9447000C94470044
:100020000C9447000C9447000C9447000C94470034
:100030000C9447000C9447000C9447000C94470024
:100040000C9447000C9447000C9447000C94470014
:100050000C94470011241FBECFE5D8E0DEBFCDBF12
:1000600010E0A0E6B0E0E2ECF1E002C005900D92F5
:10007000AC36B107D9F720E0ACE6B0E001C01D9284
:10008000AE36B207E1F70E9449000C94DF000C94F1
:100090000000CF93DF93CDB7DEB72C970FB6F8945F
:1000A000DEBF0FBECDBF80E481BB12BA8FEF8ABB2B
:1000B00087BB84BB8CE0E0E6F0E0DE0111960190A6
:1000C0000D928A95E1F710926D0010926C0065C058
:1000D000879BFECF8FE493EC0197F1F700C00000FF
:1000E000E0916C00F0916D00EE0FFF1F81E090E059
:1000F0008C0F9D1FE80FF91F808191818BBB98BBEE
:10010000BC01672F772762956F709C01207F3F703D
:10011000A901529542954F7045275F7045278F7012
:10012000992720916C0030916D002F5F3F4F3093E5
:100130006D0020936C006F30710529F450936D00B1
:1001400040936C0021C06D30710569F4809B1CC028
:1001500020916C0030916D00820F931F90936D0081
:1001600080936C0011C06630710571F4859BFECFE1
:1001700080990AC020916C0030916D00820F931F0E
:1001800090936D0080936C0080E482BB83EF91E0DC
:100190000197F1F700C0000012BA80916C009091B5
:1001A0006D00069708F494CF80E090E02C960FB68F
:1001B000F894DEBF0FBECDBFDF91CF910895F894C4
:0201C000FFCF6F
:0C01C2000785188523853485458513E0EA
:00000001FF
