S019000050435F496E737472756374696F6E4D656D2E7372656358
S11300000C942A000C9447000C9447000C9447006D
S11300100C9447000C9447000C9447000C94470040
S11300200C9447000C9447000C9447000C94470030
S11300300C9447000C9447000C9447000C94470020
S11300400C9447000C9447000C9447000C94470010
S11300500C94470011241FBECFE5D8E0DEBFCDBF0E
S113006010E0A0E6B0E0E2ECF1E002C005900D92F1
S1130070A238B107D9F720E0A2E8B0E001C01D9290
S1130080A438B207E1F70E9449000C94DF000C94F5
S11300900000CF93DF93CDB7DEB7A2970FB6F894E5
S11300A0DEBF0FBECDBF80E481BB12BA8FEF8ABB27
S11300B087BB84BB82E2E0E6F0E0DE0111960190AA
S11300C00D928A95E1F7109283001092820065C028
S11300D0879BFECF8FE493EC0197F1F700C00000FB
S11300E0E0918200F0918300EE0FFF1F81E090E029
S11300F08C0F9D1FE80FF91F808191818BBB98BBEA
S1130100BC01672F772762956F709C01207F3F7039
S1130110A901529542954F7045275F7045278F700E
S1130120992720918200309183002F5F3F4F3093B5
S11301308300209382006F30710529F4509383006B
S11301404093820021C06D30710569F4809B1CC00E
S11301502091820030918300820F931F909383003B
S11301608093820011C06630710571F4859BFECFC7
S113017080990AC02091820030918300820F931FDE
S1130180909383008093820080E482BB83EF91E0AC
S11301900197F1F700C0000012BA8091820090919B
S11301A08300419708F494CF80E090E0A2960FB6C4
S11301B0F894DEBF0FBECDBFDF91CF910895F894C0
S10501C0FFCF6B
S11301C20A8517851200038502D2318580F03085B5
S11301D2332333333214314430B0001661C661869E
S10501E21046C1
S9030000FC
