S019000050435F496E737472756374696F6E4D656D2E7372656358
S11300000C942A000C9447000C9447000C9447006D
S11300100C9447000C9447000C9447000C94470040
S11300200C9447000C9447000C9447000C94470030
S11300300C9447000C9447000C9447000C94470020
S11300400C9447000C9447000C9447000C94470010
S11300500C94470011241FBECFE5D8E0DEBFCDBF0E
S113006010E0A0E6B0E0E6ECF1E002C005900D92ED
S1130070AA38B107D9F720E0AAE8B0E001C01D9280
S1130080AC38B207E1F70E9449000C94E1000C94EB
S11300900000CF93DF93CDB7DEB7AA970FB6F894DD
S11300A0DEBF0FBECDBF80E481BB12BA8FEF8ABB27
S11300B087BB84BB8AE2E0E6F0E0DE0111960190A2
S11300C00D928A95E1F710928B0010928A0067C016
S11300D0879BFECF8FE493EC0197F1F700C00000FB
S11300E0E0918A00F0918B00EE0FFF1F81E090E019
S11300F08C0F9D1FE80FF91F808191818BBB98BBEA
S1130100BC01672F772762956F709C01207F3F7039
S1130110A901529542954F7045275F7045278F700E
S1130120992720918A0030918B002F5F3F4F3093A5
S11301308B0020938A006F30710529F450938B0053
S113014040938A0023C06D30710579F4859BFECFFE
S1130150809B1CC020918A0030918B00820F931FDA
S113016090938B0080938A0011C06630710571F4FE
S1130170859BFECF80990AC020918A0030918B0024
S1130180820F931F90938B0080938A0080E482BB3C
S113019083EF91E00197F1F700C0000012BA80915B
S11301A08A0090918B00459708F492CF80E090E00C
S11301B0AA960FB6F894DEBF0FBECDBFDF91CF91E4
S10901C00895F894FFCF3E
S11301C60785188513C1125115A10090001661C642
S11301D600E1100011D0358531D1418511641085B7
S10D01E600851310234061862046B3
S9030000FC
