:100000000C942A000C9447000C9447000C94470071
:100010000C9447000C9447000C9447000C94470044
:100020000C9447000C9447000C9447000C94470034
:100030000C9447000C9447000C9447000C94470024
:100040000C9447000C9447000C9447000C94470014
:100050000C94470011241FBECFE5D8E0DEBFCDBF12
:1000600010E0A0E6B0E0E0E0F3E002C005900D9201
:10007000AC39B107D9F720E0ACE9B0E001C01D927E
:10008000AE39B207E1F70E9449000C947E010C944E
:100090000000CF93DF93CDB7DEB7EC970FB6F8949F
:1000A000DEBF0FBECDBF84B7806884BF84B78068D1
:1000B00084BF80E481BB12BA8FEF8ABB87BB84BB4D
:1000C0008CE3E0E6F0E0DE01119601900D928A9556
:1000D000E1F710929D0010929C00FEC0879BFECF1E
:1000E0008FE493EC0197F1F700C00000E0919C00D1
:1000F000F0919D00EE0FFF1FA1E0B0E0AC0FBD1F1F
:10010000EA0FFB1F208131812BBB38BBA901452F92
:10011000552742954F70C901807F9F70BC01729531
:1001200062956F7067277F706727F901EF70FF276F
:1001300080919C0090919D00019690939D008093EA
:100140009C004F30510571F480E482BB83EF91E055
:100150000197F1F700C0000012BA70939D00609300
:100160009C00BAC04D30510509F055C080E482BBF7
:10017000A3EFB1E01197F1F700C0000012BA8FE0D1
:1001800085BB80E090E001C080B3859BFDCFA3EFED
:10019000B1E01197F1F700C0000080FF39C08AEA92
:1001A00085BBBFE74AE186E0B15040408040E1F7BF
:1001B00000C0000023FF0CC080919C0090919D0026
:1001C0008E0F9F1F409790939D0080939C000AC0C4
:1001D00080919C0090919D00E80FF91FF0939D0085
:1001E000E0939C0080919C0090919D004E9728F494
:1001F00080919C0090919D0002C082E085BB9FE7AA
:10020000AAE1B6E09150A040B040E1F700C0000084
:1002100081E085BB61C04630510509F054C080E4DF
:1002200082BB83EF91E00197F1F700C0000012BAA2
:100230008FE085BB80E090E001C080B3859BFDCF5F
:10024000A3EFB1E01197F1F700C0000080FD38C0C6
:10025000E5BBBFE74AE186E0B15040408040E1F7AE
:1002600000C0000023FF0CC080919C0090919D0075
:10027000E80FF91F7097F0939D00E0939C000AC06F
:1002800080919C0090919D00E80FF91FF0939D00D4
:10029000E0939C0080919C0090919D004E9728F4E3
:1002A00080919C0090919D0002C082E085BB9FE7F9
:1002B000AAE1B6E09150A040B040E1F700C00000D4
:1002C00081E085BB09C080E482BB83EF91E00197A8
:1002D000F1F700C0000012BA80919C0090919D003F
:1002E0004E9708F4FBCE80E090E0EC960FB6F894C1
:1002F000DEBF0FBECDBFDF91CF910895F894FFCF41
:1003000003801281278210E0031333432CD00202B2
:1003100052604A5446C4517140A414B4501661C688
:10032000101661C6058514850191618610466186A7
:0C03300010462485118121D1A0F10F8519
:00000001FF
