S02B0000436F6E74726F6C556E69745F526567697374657246696C655F414C555F446174614D656D2E7372657E
S11300000C9439000C9443000C9443000C9443006A
S11300100C9443000C9443000C9443000C94430050
S11300200C9443000C9443000C9443000C94430040
S11300300C9443000C9443000C9443000C94430030
S11300400C9443000C9443000C9443000C94430020
S11300500C9443008F00B200D100F2001301370169
S113006052016C018F01AA01CE01E8010B022702A3
S1130070400211241FBECFE5D8E0DEBFCDBF0E94F1
S113008045000C9472020C940000CF93DF93CDB71B
S1130090DEB768970FB6F894DEBF0FBECDBF84B746
S11300A0806884BF84B7806884BF17BA1ABA8FE0A7
S11300B084BB91E891BB12BAFE01319698E0DF014E
S11300C01D929A95E9F78F83389680E1DF011D929E
S11300D08A95E9F70CC083B382958F70E1E0F0E074
S11300E0EC0FFD1FE80FF11D80818F7085BB819B94
S11300F0F2CF83EF91E00197F1F700C0000026B33F
S113010039B3E22FE295EF708E2F90E08F30910596
S113011008F0D7C1FC01E65DFF4F0C946C02432F3D
S11301204F702F70E1E0F0E0EC0FFD1FE20FF11DC6
S11301309081E32FE295EF70A1E0B0E0AC0FBD1F1A
S1130140AE0FB11DFD018081981BE1E0F0E0EC0FE2
S1130150FD1FE40FF11D90839111B3C182B381603F
S113016082BBAFC12F70832F82958F70E32FEF7006
S1130170A1E0B0E0AC0FBD1FA20FB11D9C91F0E057
S1130180E90FF11DA1E0B0E0AC0FBD1FA80FB11D38
S11301908C9129E030E02C0F3D1FE20FF31F808388
S11301A090C1432F42954F702F70E1E0F0E0EC0FC7
S11301B0FD1FE20FF11D2081E32FEF7030E0C90134
S11301C002C0880F991FEA95E2F7E1E0F0E0EC0F36
S11301D0FD1FE40FF11D8083811173C182B381601F
S11301E082BB6FC1432F42954F702F70E1E0F0E066
S11301F0EC0FFD1FE20FF11D2081E32FEF7030E0C3
S1130200C90102C095958795EA95E2F7E1E0F0E02F
S1130210EC0FFD1FE40FF11D8083811152C182B3E5
S1130220816082BB4EC12F70932F92959F70E32FF4
S1130230EF70A1E0B0E0AC0FBD1FA20FB11D8C9117
S1130240F0E0E80FF11D49E050E04C0F5D1FE40FB2
S1130250F51F8081E1E0F0E0EC0FFD1FE90FF11DD7
S1130260808381112EC182B3816082BB2AC1432F56
S113027042954F702F70E1E0F0E0EC0FFD1FE20FAC
S1130280F11D9081E32FEF70E92BA1E0B0E0AC0FFA
S1130290BD1FA40FB11DEC93E11113C182B38160A2
S11302A082BB0FC12F70E1E0F0E0EC0FFD1FE20F05
S11302B0F11D9081E32FE295EF70A1E0B0E0AC0F67
S11302C0BD1FAE0FB11DFD018081981709F4F9C05F
S11302D082B38E7F82BBF5C0932F9F70E32FE2958C
S11302E0EF7041E050E04C0F5D1F4E0F511DFA01BD
S11302F030812F70E1E0F0E0EC0FFD1FE20FF11D03
S113030080818323E1E0F0E0EC0FFD1FE90FF11D94
S113031080838111D6C082B3816082BBD2C0432F57
S113032042954F702F70E1E0F0E0EC0FFD1FE20FFB
S1130330F11D9081E32FEF70E90FA1E0B0E0AC0F65
S1130340BD1FA40FB11DEC93E111BBC082B381604A
S113035082BBB7C0932F9F70E32FE295EF70A1E0AB
S1130360B0E0AC0FBD1FAE0FB11DFD0130812F7089
S1130370E1E0F0E0EC0FFD1FE20FF11D8081832B23
S11303808095E1E0F0E0EC0FFD1FE90FF11D8083A3
S1130390811197C082B3816082BB93C0832F829501
S11303A08F702F70E1E0F0E0EC0FFD1FE20FF11D04
S11303B0E081E323EF70A1E0B0E0AC0FBD1FA80F14
S11303C0B11DEC93E1117DC082B3816082BB79C021
S11303D0932F9F70E32FE295EF7041E050E04C0FB4
S11303E05D1F4E0F511DFA0130812F70E1E0F0E0E6
S11303F0EC0FFD1FE20FF11D8081832BE1E0F0E0A3
S1130400EC0FFD1FE90FF11D808381115AC082B3E7
S1130410816082BB56C0432F42954F702F70E1E03C
S1130420F0E0EC0FFD1FE20FF11D9081E32FEF7060
S1130430892F8E1BE1E0F0E0EC0FFD1FE40FF11DAE
S1130440808381113EC082B3816082BB3AC02F7029
S1130450E1E0F0E0EC0FFD1FE20FF11D9081E32FCE
S1130460E295EF70A1E0B0E0AC0FBD1FAE0FB11D7F
S1130470FD018081981325C082B3816082BB21C0B5
S1130480932F9F70832F82958F70E1E0F0E0EC0F43
S1130490FD1FE80FF11D30812F70E1E0F0E0EC0F5B
S11304A0FD1FE20FF11D8081830FE1E0F0E0EC0F0E
S11304B0FD1FE90FF11D8083811103C082B38160A8
S11304C082BB82B3806882BB83EF91E00197F1F72E
S11304D000C0000012BA0BCEEE0FFF1F0590F4917E
S10B04E0E02D0994F894FFCF0C
S9030000FC
