:100000000C9439000C9443000C9443000C9443006E
:100010000C9443000C9443000C9443000C94430054
:100020000C9443000C9443000C9443000C94430044
:100030000C9443000C9443000C9443000C94430034
:100040000C9443000C9443000C9443000C94430024
:100050000C9443008F00B200D100F200130137016D
:10006000520174019701B201D601F00113022F026F
:10007000510211241FBECFE5D8E0DEBFCDBF0E94E4
:1000800045000C947D020C940000CF93DF93CDB714
:10009000DEB768970FB6F894DEBF0FBECDBF84B74A
:1000A000806884BF84B7806884BF17BA1ABA8FE0AB
:1000B00084BB91E491BB12BAFE01319698E0DF0156
:1000C0001D929A95E9F78F83389680E1DF011D92A2
:1000D0008A95E9F70CC083B382958F70E1E0F0E078
:1000E000EC0FFD1FE80FF11D80818F7085BB819B98
:1000F000F2CF83EF91E00197F1F700C0000026B343
:1001000039B3E22FE295EF708E2F90E08F3091059A
:1001100008F0E8C1FC01E65DFF4F0C947702432F25
:100120004F702F70E1E0F0E0EC0FFD1FE20FF11DCA
:100130009081E32FE295EF70A1E0B0E0AC0FBD1F1E
:10014000AE0FB11DFD018081981BE1E0F0E0EC0FE6
:10015000FD1FE40FF11D90839111C4C182B3816032
:1001600082BBC0C12F70832F82958F70E32FEF70F9
:10017000A1E0B0E0AC0FBD1FA20FB11D9C91F0E05B
:10018000E90FF11DA1E0B0E0AC0FBD1FA80FB11D3C
:100190008C9129E030E02C0F3D1FE20FF31F80838C
:1001A000A1C1432F42954F702F70E1E0F0E0EC0FBA
:1001B000FD1FE20FF11D2081E32FEF7030E0C90138
:1001C00002C0880F991FEA95E2F7E1E0F0E0EC0F3A
:1001D000FD1FE40FF11D8083811184C182B3816012
:1001E00082BB80C1432F42954F702F70E1E0F0E059
:1001F000EC0FFD1FE20FF11D2081E32FEF7030E0C7
:10020000C90102C095958795EA95E2F7E1E0F0E033
:10021000EC0FFD1FE40FF11D8083811163C182B3D8
:10022000816082BB5FC12F70932F92959F70E32FE7
:10023000EF70A1E0B0E0AC0FBD1FA20FB11D8C911B
:10024000F0E0E80FF11D49E050E04C0F5D1FE40FB6
:10025000F51F8081E1E0F0E0EC0FFD1FE90FF11DDB
:10026000808381113FC182B3816082BB3BC1432F38
:1002700042954F702F70E1E0F0E0EC0FFD1FE20FB0
:10028000F11D9081E32FEF70E92BA1E0B0E0AC0FFE
:10029000BD1FA40FB11DEC93E11124C182B3816095
:1002A00082BB20C12F70E1E0F0E0EC0FFD1FE20FF8
:1002B000F11D9081E32FE295EF70A1E0B0E0AC0F6B
:1002C000BD1FAE0FB11DFD01808198130BC182B31C
:1002D000816082BBBFE32DE033E0B150204030406D
:1002E000E1F700C00000FEC0932F9F70E32FE2955E
:1002F000EF7041E050E04C0F5D1F4E0F511DFA01B1
:1003000030812F70E1E0F0E0EC0FFD1FE20FF11DF6
:1003100080818323E1E0F0E0EC0FFD1FE90FF11D88
:1003200080838111DFC082B3816082BBDBC0432F39
:1003300042954F702F70E1E0F0E0EC0FFD1FE20FEF
:10034000F11D9081E32FEF70E90FA1E0B0E0AC0F59
:10035000BD1FA40FB11DEC93E111C4C082B3816035
:1003600082BBC0C0932F9F70E32FE295EF70A1E096
:10037000B0E0AC0FBD1FAE0FB11DFD0130812F707D
:10038000E1E0F0E0EC0FFD1FE20FF11D8081832B17
:100390008095E1E0F0E0EC0FFD1FE90FF11D808397
:1003A0008111A0C082B3816082BB9CC0832F8295E3
:1003B0008F702F70E1E0F0E0EC0FFD1FE20FF11DF8
:1003C000E081E323EF70A1E0B0E0AC0FBD1FA80F08
:1003D000B11DEC93E11186C082B3816082BB82C003
:1003E000932F9F70E32FE295EF7041E050E04C0FA8
:1003F0005D1F4E0F511DFA0130812F70E1E0F0E0DA
:10040000EC0FFD1FE20FF11D8081832BE1E0F0E096
:10041000EC0FFD1FE90FF11D8083811163C082B3D2
:10042000816082BB5FC0432F42954F702F70E1E027
:10043000F0E0EC0FFD1FE20FF11D9081E32FEF7054
:10044000892F8E1BE1E0F0E0EC0FFD1FE40FF11DA2
:100450008083811147C082B3816082BB43C02F700B
:10046000E1E0F0E0EC0FFD1FE20FF11D9081E32FC2
:10047000E295EF70A1E0B0E0AC0FBD1FAE0FB11D73
:10048000FD01808198132EC082B3816082BBBFE3DF
:100490002DE033E0B15020403040E1F700C00000D3
:1004A00021C0932F9F70832F82958F70E1E0F0E041
:1004B000EC0FFD1FE80FF11D30812F70E1E0F0E03F
:1004C000EC0FFD1FE20FF11D8081830FE1E0F0E0F2
:1004D000EC0FFD1FE90FF11D8083811103C082B372
:1004E000816082BB82B3806882BB12BA00CEEE0FFD
:0E04F000FF1F0590F491E02D0994F894FFCFC2
:00000001FF
