S01700004763634170706C69636174696F6E312E737265635B
S11300000C942A000C9447000C9447000C9447006D
S11300100C9447000C9447000C9447000C94470040
S11300200C9447000C9447000C9447000C94470030
S11300300C9447000C9447000C9447000C94470020
S11300400C9447000C9447000C9447000C94470010
S11300500C94470011241FBECFE5D8E0DEBFCDBF0E
S113006010E0A0E6B0E0EAECF1E002C005900D92E9
S1130070A238B107D9F720E0A2E8B0E001C01D9290
S1130080A438B207E1F70E9449000C94E3000C94F1
S11300900000CF93DF93CDB7DEB7A2970FB6F894E5
S11300A0DEBF0FBECDBF80E481BB12BA8FEF8ABB27
S11300B087BB84BB82E2E0E6F0E0DE0111960190AA
S11300C00D928A95E1F7109283001092820080913C
S11300D0820090918300419708F06AC060E4879B96
S11300E0FECF8FE493EC0197F1F700C00000E0919C
S11300F08200F0918300EE0FFF1F81E090E08C0FEF
S11301009D1FE80FF91F808191818BBB98BBAC01C7
S1130110452F552742954F702091820030918300DE
S11301202F5F3F4F30938300209382004F3051055F
S113013069F4807F9F70929582958F7089279F7054
S11301408927909383008093820023C08F7099271E
S11301504D30510569F4809B1CC020918200309180
S11301608300820F931F909383008093820011C0B9
S11301704630510571F4859BFECF80990AC02091C9
S1130180820030918300820F931F909383008093A9
S1130190820062BB83EF91E00197F1F700C0000099
S11301A012BA8091820090918300419708F497CF0E
S11301B080E090E0A2960FB6F894DEBF0FBECDBFEC
S10D01C0DF91CF910895F894FFCF6A
S11301CA0A8517851200038502D2318580F03085AD
S11301DA332333333214314430B0001661C6618696
S10501EA1046B9
S9030000FC
